{
  "contractName": "first_contract",
  "abi": [
    {
      "inputs": [
        {
          "internalType": "address",
          "name": "",
          "type": "address"
        }
      ],
      "name": "accounts",
      "outputs": [
        {
          "internalType": "string",
          "name": "name",
          "type": "string"
        },
        {
          "internalType": "uint256",
          "name": "counter",
          "type": "uint256"
        },
        {
          "internalType": "bool",
          "name": "creater",
          "type": "bool"
        }
      ],
      "stateMutability": "view",
      "type": "function",
      "constant": true
    },
    {
      "inputs": [],
      "name": "owner",
      "outputs": [
        {
          "internalType": "address",
          "name": "",
          "type": "address"
        }
      ],
      "stateMutability": "view",
      "type": "function",
      "constant": true
    },
    {
      "inputs": [
        {
          "internalType": "string",
          "name": "url_name",
          "type": "string"
        }
      ],
      "name": "addString",
      "outputs": [],
      "stateMutability": "nonpayable",
      "type": "function"
    },
    {
      "inputs": [
        {
          "internalType": "uint256",
          "name": "n",
          "type": "uint256"
        }
      ],
      "name": "getString",
      "outputs": [
        {
          "internalType": "string",
          "name": "",
          "type": "string"
        }
      ],
      "stateMutability": "view",
      "type": "function",
      "constant": true
    },
    {
      "inputs": [
        {
          "internalType": "address",
          "name": "friend_request_address",
          "type": "address"
        }
      ],
      "name": "addFrind",
      "outputs": [],
      "stateMutability": "nonpayable",
      "type": "function"
    },
    {
      "inputs": [],
      "name": "getFriendsAddress",
      "outputs": [
        {
          "internalType": "address[]",
          "name": "",
          "type": "address[]"
        }
      ],
      "stateMutability": "view",
      "type": "function",
      "constant": true
    },
    {
      "inputs": [
        {
          "internalType": "string",
          "name": "name",
          "type": "string"
        }
      ],
      "name": "createAcount",
      "outputs": [],
      "stateMutability": "nonpayable",
      "type": "function"
    }
  ],
  "bytecode": "0x608060405234801561001057600080fd5b50610eaf806100206000396000f3fe608060405234801561001057600080fd5b506004361061007d5760003560e01c80635e5c06e21161005b5780635e5c06e2146100d85780638da5cb5b1461010a5780639874f5d714610128578063b7c763b5146101445761007d565b806323db5ee1146100825780632557150e146100a057806353f26b0d146100bc575b600080fd5b61008a610174565b60405161009791906109b4565b60405180910390f35b6100ba60048036038101906100b59190610b30565b610241565b005b6100d660048036038101906100d19190610ba5565b610394565b005b6100f260048036038101906100ed9190610ba5565b610491565b60405161010193929190610c8e565b60405180910390f35b610112610550565b60405161011f9190610cdb565b60405180910390f35b610142600480360381019061013d9190610b30565b610576565b005b61015e60048036038101906101599190610d22565b6106e3565b60405161016b9190610d4f565b60405180910390f35b60606000803373ffffffffffffffffffffffffffffffffffffffff1673ffffffffffffffffffffffffffffffffffffffff16815260200190815260200160002060080180548060200260200160405190810160405280929190818152602001828054801561023757602002820191906000526020600020905b8160009054906101000a900473ffffffffffffffffffffffffffffffffffffffff1673ffffffffffffffffffffffffffffffffffffffff16815260200190600101908083116101ed575b5050505050905090565b6000803373ffffffffffffffffffffffffffffffffffffffff1673ffffffffffffffffffffffffffffffffffffffff16815260200190815260200160002060070160009054906101000a900460ff161561029a57600080fd5b806000803373ffffffffffffffffffffffffffffffffffffffff1673ffffffffffffffffffffffffffffffffffffffff16815260200190815260200160002060000190805190602001906102ef929190610821565b5060008060003373ffffffffffffffffffffffffffffffffffffffff1673ffffffffffffffffffffffffffffffffffffffff1681526020019081526020016000206006018190555060016000803373ffffffffffffffffffffffffffffffffffffffff1673ffffffffffffffffffffffffffffffffffffffff16815260200190815260200160002060070160006101000a81548160ff02191690831515021790555050565b6000808273ffffffffffffffffffffffffffffffffffffffff1673ffffffffffffffffffffffffffffffffffffffff16815260200190815260200160002060070160009054906101000a900460ff166103ec57600080fd5b6000803373ffffffffffffffffffffffffffffffffffffffff1673ffffffffffffffffffffffffffffffffffffffff168152602001908152602001600020600801819080600181540180825580915050600190039060005260206000200160009091909190916101000a81548173ffffffffffffffffffffffffffffffffffffffff021916908373ffffffffffffffffffffffffffffffffffffffff16021790555050565b60006020528060005260406000206000915090508060000180546104b490610da0565b80601f01602080910402602001604051908101604052809291908181526020018280546104e090610da0565b801561052d5780601f106105025761010080835404028352916020019161052d565b820191906000526020600020905b81548152906001019060200180831161051057829003601f168201915b5050505050908060060154908060070160009054906101000a900460ff16905083565b600160009054906101000a900473ffffffffffffffffffffffffffffffffffffffff1681565b6000803373ffffffffffffffffffffffffffffffffffffffff1673ffffffffffffffffffffffffffffffffffffffff16815260200190815260200160002060070160009054906101000a900460ff166105ce57600080fd5b60008060003373ffffffffffffffffffffffffffffffffffffffff1673ffffffffffffffffffffffffffffffffffffffff168152602001908152602001600020600601549050600581141561062257600090505b816000803373ffffffffffffffffffffffffffffffffffffffff1673ffffffffffffffffffffffffffffffffffffffff168152602001908152602001600020600101826005811061067657610675610dd2565b5b01908051906020019061068a929190610821565b50808061069690610e30565b915050806000803373ffffffffffffffffffffffffffffffffffffffff1673ffffffffffffffffffffffffffffffffffffffff168152602001908152602001600020600601819055505050565b60606000803373ffffffffffffffffffffffffffffffffffffffff1673ffffffffffffffffffffffffffffffffffffffff16815260200190815260200160002060070160009054906101000a900460ff1661073d57600080fd5b6000803373ffffffffffffffffffffffffffffffffffffffff1673ffffffffffffffffffffffffffffffffffffffff16815260200190815260200160002060010182600581106107905761078f610dd2565b5b01805461079c90610da0565b80601f01602080910402602001604051908101604052809291908181526020018280546107c890610da0565b80156108155780601f106107ea57610100808354040283529160200191610815565b820191906000526020600020905b8154815290600101906020018083116107f857829003601f168201915b50505050509050919050565b82805461082d90610da0565b90600052602060002090601f01602090048101928261084f5760008555610896565b82601f1061086857805160ff1916838001178555610896565b82800160010185558215610896579182015b8281111561089557825182559160200191906001019061087a565b5b5090506108a391906108a7565b5090565b5b808211156108c05760008160009055506001016108a8565b5090565b600081519050919050565b600082825260208201905092915050565b6000819050602082019050919050565b600073ffffffffffffffffffffffffffffffffffffffff82169050919050565b600061091b826108f0565b9050919050565b61092b81610910565b82525050565b600061093d8383610922565b60208301905092915050565b6000602082019050919050565b6000610961826108c4565b61096b81856108cf565b9350610976836108e0565b8060005b838110156109a757815161098e8882610931565b975061099983610949565b92505060018101905061097a565b5085935050505092915050565b600060208201905081810360008301526109ce8184610956565b905092915050565b6000604051905090565b600080fd5b600080fd5b600080fd5b600080fd5b6000601f19601f8301169050919050565b7f4e487b7100000000000000000000000000000000000000000000000000000000600052604160045260246000fd5b610a3d826109f4565b810181811067ffffffffffffffff82111715610a5c57610a5b610a05565b5b80604052505050565b6000610a6f6109d6565b9050610a7b8282610a34565b919050565b600067ffffffffffffffff821115610a9b57610a9a610a05565b5b610aa4826109f4565b9050602081019050919050565b82818337600083830152505050565b6000610ad3610ace84610a80565b610a65565b905082815260208101848484011115610aef57610aee6109ef565b5b610afa848285610ab1565b509392505050565b600082601f830112610b1757610b166109ea565b5b8135610b27848260208601610ac0565b91505092915050565b600060208284031215610b4657610b456109e0565b5b600082013567ffffffffffffffff811115610b6457610b636109e5565b5b610b7084828501610b02565b91505092915050565b610b8281610910565b8114610b8d57600080fd5b50565b600081359050610b9f81610b79565b92915050565b600060208284031215610bbb57610bba6109e0565b5b6000610bc984828501610b90565b91505092915050565b600081519050919050565b600082825260208201905092915050565b60005b83811015610c0c578082015181840152602081019050610bf1565b83811115610c1b576000848401525b50505050565b6000610c2c82610bd2565b610c368185610bdd565b9350610c46818560208601610bee565b610c4f816109f4565b840191505092915050565b6000819050919050565b610c6d81610c5a565b82525050565b60008115159050919050565b610c8881610c73565b82525050565b60006060820190508181036000830152610ca88186610c21565b9050610cb76020830185610c64565b610cc46040830184610c7f565b949350505050565b610cd581610910565b82525050565b6000602082019050610cf06000830184610ccc565b92915050565b610cff81610c5a565b8114610d0a57600080fd5b50565b600081359050610d1c81610cf6565b92915050565b600060208284031215610d3857610d376109e0565b5b6000610d4684828501610d0d565b91505092915050565b60006020820190508181036000830152610d698184610c21565b905092915050565b7f4e487b7100000000000000000000000000000000000000000000000000000000600052602260045260246000fd5b60006002820490506001821680610db857607f821691505b60208210811415610dcc57610dcb610d71565b5b50919050565b7f4e487b7100000000000000000000000000000000000000000000000000000000600052603260045260246000fd5b7f4e487b7100000000000000000000000000000000000000000000000000000000600052601160045260246000fd5b6000610e3b82610c5a565b91507fffffffffffffffffffffffffffffffffffffffffffffffffffffffffffffffff821415610e6e57610e6d610e01565b5b60018201905091905056fea26469706673582212201c8c4ec80379d5d769824027cd83c3e554cf48a910b98506ccfc1e37d2531c8464736f6c634300080b0033",
  "immutableReferences": {},
  "source": "// SPDX-License-Identifier: MIT\r\npragma solidity >=0.4.22 <0.9.0;\r\n\r\ncontract first_contract {\r\n\r\n    struct User{\r\n        string name;\r\n        string[5] urls;\r\n        uint256 counter;\r\n        bool creater;\r\n        address[] friends;\r\n    }\r\n\r\n    mapping(address => User) public accounts;\r\n    address public owner;\r\n\r\n    function addString(string memory url_name) public{\r\n        require(accounts[msg.sender].creater);\r\n        uint256 count = accounts[msg.sender].counter;    \r\n        if(count==5){\r\n            count = 0;\r\n        }\r\n        accounts[msg.sender].urls[count] = url_name;\r\n        count++;\r\n        accounts[msg.sender].counter = count;\r\n    }\r\n\r\n    function getString(uint256 n) public view returns (string memory){\r\n       require(accounts[msg.sender].creater);\r\n       return accounts[msg.sender].urls[n];\r\n    }\r\n\r\n//   function getallStrings() public view returns (string[] memory){\r\n//        uint number_of_friends = accounts[msg.sender].friends.length;\r\n//        string[] memory all_friends_picture;\r\n//        for(uint i =0; i< number_of_friends; i++){\r\n//                address friend_address = accounts[msg.sender].friends[i];\r\n//                uint256 number_of_picture_of_friend = accounts[friend_address].counter;\r\n//                \r\n//                for(uint j =0; j<number_of_picture_of_friend; j++){\r\n//                    string memory url = accounts[friend_address].urls[j];\r\n//                    all_friends_picture.push(url);\r\n//                }\r\n//        }\r\n//\r\n//       return all_friends_picture;\r\n//    }\r\n\r\n    function addFrind(address friend_request_address) public {\r\n        require(accounts[friend_request_address].creater);\r\n        accounts[msg.sender].friends.push(friend_request_address);\r\n    }\r\n    function getFriendsAddress() public view returns (address[] memory){\r\n        return accounts[msg.sender].friends;\r\n    }\r\n\r\n    \r\n    function createAcount(string memory name) public {\r\n        require(!accounts[msg.sender].creater);\r\n        accounts[msg.sender].name = name;\r\n        accounts[msg.sender].counter =0;\r\n        accounts[msg.sender].creater = true;\r\n    }\r\n}",
  "sourcePath": "C:\\projects\\block\\3DGallery\\contract\\contracts\\first_contract.sol",
  "compiler": {
    "name": "solc",
    "version": "0.8.11+commit.d7f03943.Emscripten.clang"
  },
  "schemaVersion": "3.4.4",
  "updatedAt": "2022-02-17T03:09:24.585Z",
  "networkType": "ethereum",
  "devdoc": {
    "kind": "dev",
    "methods": {},
    "version": 1
  },
  "userdoc": {
    "kind": "user",
    "methods": {},
    "version": 1
  }
}