{
  "contractName": "first_contract",
  "abi": [
    {
      "inputs": [
        {
          "internalType": "address",
          "name": "",
          "type": "address"
        }
      ],
      "name": "accounts",
      "outputs": [
        {
          "internalType": "string",
          "name": "name",
          "type": "string"
        },
        {
          "internalType": "uint256",
          "name": "counter",
          "type": "uint256"
        },
        {
          "internalType": "bool",
          "name": "creater",
          "type": "bool"
        }
      ],
      "stateMutability": "view",
      "type": "function",
      "constant": true
    },
    {
      "inputs": [],
      "name": "owner",
      "outputs": [
        {
          "internalType": "address",
          "name": "",
          "type": "address"
        }
      ],
      "stateMutability": "view",
      "type": "function",
      "constant": true
    },
    {
      "inputs": [
        {
          "internalType": "string",
          "name": "url_name",
          "type": "string"
        }
      ],
      "name": "addString",
      "outputs": [],
      "stateMutability": "nonpayable",
      "type": "function"
    },
    {
      "inputs": [
        {
          "internalType": "uint256",
          "name": "n",
          "type": "uint256"
        }
      ],
      "name": "getString",
      "outputs": [
        {
          "internalType": "string",
          "name": "",
          "type": "string"
        }
      ],
      "stateMutability": "view",
      "type": "function",
      "constant": true
    },
    {
      "inputs": [
        {
          "internalType": "string",
          "name": "name",
          "type": "string"
        }
      ],
      "name": "createAcount",
      "outputs": [],
      "stateMutability": "nonpayable",
      "type": "function"
    }
  ],
  "bytecode": "0x608060405234801561001057600080fd5b50610ba5806100206000396000f3fe608060405234801561001057600080fd5b50600436106100575760003560e01c80632557150e1461005c5780635e5c06e2146100785780638da5cb5b146100aa5780639874f5d7146100c8578063b7c763b5146100e4575b600080fd5b610076600480360381019061007191906107f4565b610114565b005b610092600480360381019061008d919061089b565b610267565b6040516100a193929190610984565b60405180910390f35b6100b2610326565b6040516100bf91906109d1565b60405180910390f35b6100e260048036038101906100dd91906107f4565b61034c565b005b6100fe60048036038101906100f99190610a18565b6104b9565b60405161010b9190610a45565b60405180910390f35b6000803373ffffffffffffffffffffffffffffffffffffffff1673ffffffffffffffffffffffffffffffffffffffff16815260200190815260200160002060070160009054906101000a900460ff161561016d57600080fd5b806000803373ffffffffffffffffffffffffffffffffffffffff1673ffffffffffffffffffffffffffffffffffffffff16815260200190815260200160002060000190805190602001906101c29291906105f7565b5060008060003373ffffffffffffffffffffffffffffffffffffffff1673ffffffffffffffffffffffffffffffffffffffff1681526020019081526020016000206006018190555060016000803373ffffffffffffffffffffffffffffffffffffffff1673ffffffffffffffffffffffffffffffffffffffff16815260200190815260200160002060070160006101000a81548160ff02191690831515021790555050565b600060205280600052604060002060009150905080600001805461028a90610a96565b80601f01602080910402602001604051908101604052809291908181526020018280546102b690610a96565b80156103035780601f106102d857610100808354040283529160200191610303565b820191906000526020600020905b8154815290600101906020018083116102e657829003601f168201915b5050505050908060060154908060070160009054906101000a900460ff16905083565b600160009054906101000a900473ffffffffffffffffffffffffffffffffffffffff1681565b6000803373ffffffffffffffffffffffffffffffffffffffff1673ffffffffffffffffffffffffffffffffffffffff16815260200190815260200160002060070160009054906101000a900460ff166103a457600080fd5b60008060003373ffffffffffffffffffffffffffffffffffffffff1673ffffffffffffffffffffffffffffffffffffffff16815260200190815260200160002060060154905060058114156103f857600090505b816000803373ffffffffffffffffffffffffffffffffffffffff1673ffffffffffffffffffffffffffffffffffffffff168152602001908152602001600020600101826005811061044c5761044b610ac8565b5b0190805190602001906104609291906105f7565b50808061046c90610b26565b915050806000803373ffffffffffffffffffffffffffffffffffffffff1673ffffffffffffffffffffffffffffffffffffffff168152602001908152602001600020600601819055505050565b60606000803373ffffffffffffffffffffffffffffffffffffffff1673ffffffffffffffffffffffffffffffffffffffff16815260200190815260200160002060070160009054906101000a900460ff1661051357600080fd5b6000803373ffffffffffffffffffffffffffffffffffffffff1673ffffffffffffffffffffffffffffffffffffffff168152602001908152602001600020600101826005811061056657610565610ac8565b5b01805461057290610a96565b80601f016020809104026020016040519081016040528092919081815260200182805461059e90610a96565b80156105eb5780601f106105c0576101008083540402835291602001916105eb565b820191906000526020600020905b8154815290600101906020018083116105ce57829003601f168201915b50505050509050919050565b82805461060390610a96565b90600052602060002090601f016020900481019282610625576000855561066c565b82601f1061063e57805160ff191683800117855561066c565b8280016001018555821561066c579182015b8281111561066b578251825591602001919060010190610650565b5b509050610679919061067d565b5090565b5b8082111561069657600081600090555060010161067e565b5090565b6000604051905090565b600080fd5b600080fd5b600080fd5b600080fd5b6000601f19601f8301169050919050565b7f4e487b7100000000000000000000000000000000000000000000000000000000600052604160045260246000fd5b610701826106b8565b810181811067ffffffffffffffff821117156107205761071f6106c9565b5b80604052505050565b600061073361069a565b905061073f82826106f8565b919050565b600067ffffffffffffffff82111561075f5761075e6106c9565b5b610768826106b8565b9050602081019050919050565b82818337600083830152505050565b600061079761079284610744565b610729565b9050828152602081018484840111156107b3576107b26106b3565b5b6107be848285610775565b509392505050565b600082601f8301126107db576107da6106ae565b5b81356107eb848260208601610784565b91505092915050565b60006020828403121561080a576108096106a4565b5b600082013567ffffffffffffffff811115610828576108276106a9565b5b610834848285016107c6565b91505092915050565b600073ffffffffffffffffffffffffffffffffffffffff82169050919050565b60006108688261083d565b9050919050565b6108788161085d565b811461088357600080fd5b50565b6000813590506108958161086f565b92915050565b6000602082840312156108b1576108b06106a4565b5b60006108bf84828501610886565b91505092915050565b600081519050919050565b600082825260208201905092915050565b60005b838110156109025780820151818401526020810190506108e7565b83811115610911576000848401525b50505050565b6000610922826108c8565b61092c81856108d3565b935061093c8185602086016108e4565b610945816106b8565b840191505092915050565b6000819050919050565b61096381610950565b82525050565b60008115159050919050565b61097e81610969565b82525050565b6000606082019050818103600083015261099e8186610917565b90506109ad602083018561095a565b6109ba6040830184610975565b949350505050565b6109cb8161085d565b82525050565b60006020820190506109e660008301846109c2565b92915050565b6109f581610950565b8114610a0057600080fd5b50565b600081359050610a12816109ec565b92915050565b600060208284031215610a2e57610a2d6106a4565b5b6000610a3c84828501610a03565b91505092915050565b60006020820190508181036000830152610a5f8184610917565b905092915050565b7f4e487b7100000000000000000000000000000000000000000000000000000000600052602260045260246000fd5b60006002820490506001821680610aae57607f821691505b60208210811415610ac257610ac1610a67565b5b50919050565b7f4e487b7100000000000000000000000000000000000000000000000000000000600052603260045260246000fd5b7f4e487b7100000000000000000000000000000000000000000000000000000000600052601160045260246000fd5b6000610b3182610950565b91507fffffffffffffffffffffffffffffffffffffffffffffffffffffffffffffffff821415610b6457610b63610af7565b5b60018201905091905056fea2646970667358221220d2f7ced0dfa227eb4d54d849c1330288708b38c40012b7bddb15567a06ad40fc64736f6c634300080b0033",
  "immutableReferences": {},
  "source": "// SPDX-License-Identifier: MIT\r\npragma solidity >=0.4.22 <0.9.0;\r\n\r\ncontract first_contract {\r\n\r\n    struct User{\r\n        string name;\r\n        string[5] urls;\r\n        uint256 counter;\r\n        bool creater;\r\n    }\r\n\r\n    mapping(address => User) public accounts;\r\n    address public owner;\r\n\r\n    function addString(string memory url_name) public{\r\n        require(accounts[msg.sender].creater);\r\n        uint256 count = accounts[msg.sender].counter;    \r\n        if(count==5){\r\n            count = 0;\r\n        }\r\n        accounts[msg.sender].urls[count] = url_name;\r\n        count++;\r\n        accounts[msg.sender].counter = count;\r\n    }\r\n\r\n    function getString(uint256 n) public view returns (string memory){\r\n       require(accounts[msg.sender].creater);\r\n       return accounts[msg.sender].urls[n];\r\n    }\r\n    function createAcount(string memory name) public {\r\n        require(!accounts[msg.sender].creater);\r\n        accounts[msg.sender].name = name;\r\n        accounts[msg.sender].counter =0;\r\n        accounts[msg.sender].creater = true;\r\n    }\r\n}",
  "sourcePath": "C:\\projects\\block\\meme1\\contracts\\first_contract.sol",
  "compiler": {
    "name": "solc",
    "version": "0.8.11+commit.d7f03943.Emscripten.clang"
  },
  "schemaVersion": "3.4.4",
  "updatedAt": "2022-02-04T15:05:20.600Z",
  "networkType": "ethereum",
  "devdoc": {
    "kind": "dev",
    "methods": {},
    "version": 1
  },
  "userdoc": {
    "kind": "user",
    "methods": {},
    "version": 1
  }
}